{
  "contractName": "VoteFactory",
  "abi": [
    {
      "constant": true,
      "inputs": [
        {
          "name": "",
          "type": "uint256"
        }
      ],
      "name": "votes",
      "outputs": [
        {
          "name": "state",
          "type": "uint8"
        },
        {
          "name": "question",
          "type": "string"
        }
      ],
      "payable": false,
      "stateMutability": "view",
      "type": "function"
    },
    {
      "constant": false,
      "inputs": [],
      "name": "renounceOwnership",
      "outputs": [],
      "payable": false,
      "stateMutability": "nonpayable",
      "type": "function"
    },
    {
      "constant": true,
      "inputs": [],
      "name": "owner",
      "outputs": [
        {
          "name": "",
          "type": "address"
        }
      ],
      "payable": false,
      "stateMutability": "view",
      "type": "function"
    },
    {
      "constant": false,
      "inputs": [
        {
          "name": "_newOwner",
          "type": "address"
        }
      ],
      "name": "transferOwnership",
      "outputs": [],
      "payable": false,
      "stateMutability": "nonpayable",
      "type": "function"
    },
    {
      "anonymous": false,
      "inputs": [
        {
          "indexed": true,
          "name": "previousOwner",
          "type": "address"
        }
      ],
      "name": "OwnershipRenounced",
      "type": "event"
    },
    {
      "anonymous": false,
      "inputs": [
        {
          "indexed": true,
          "name": "previousOwner",
          "type": "address"
        },
        {
          "indexed": true,
          "name": "newOwner",
          "type": "address"
        }
      ],
      "name": "OwnershipTransferred",
      "type": "event"
    },
    {
      "constant": false,
      "inputs": [
        {
          "name": "_question",
          "type": "string"
        }
      ],
      "name": "createVote",
      "outputs": [],
      "payable": false,
      "stateMutability": "nonpayable",
      "type": "function"
    },
    {
      "constant": false,
      "inputs": [
        {
          "name": "_voteId",
          "type": "uint256"
        }
      ],
      "name": "startVote",
      "outputs": [],
      "payable": false,
      "stateMutability": "nonpayable",
      "type": "function"
    },
    {
      "constant": false,
      "inputs": [
        {
          "name": "_voteId",
          "type": "uint256"
        }
      ],
      "name": "stopVote",
      "outputs": [],
      "payable": false,
      "stateMutability": "nonpayable",
      "type": "function"
    },
    {
      "constant": false,
      "inputs": [
        {
          "name": "_voteId",
          "type": "uint256"
        },
        {
          "name": "_answer",
          "type": "string"
        }
      ],
      "name": "addAnswer",
      "outputs": [],
      "payable": false,
      "stateMutability": "nonpayable",
      "type": "function"
    }
  ],
  "bytecode": "0x6080604052336000806101000a81548173ffffffffffffffffffffffffffffffffffffffff021916908373ffffffffffffffffffffffffffffffffffffffff160217905550610d38806100536000396000f30060806040526004361061008e576000357c0100000000000000000000000000000000000000000000000000000000900463ffffffff16806313292a02146100935780633f220524146100fc57806343ab92b7146101295780635df8133014610156578063715018a6146102115780637491995a146102285780638da5cb5b1461029b578063f2fde38b146102f2575b600080fd5b34801561009f57600080fd5b506100fa600480360381019080803590602001908201803590602001908080601f0160208091040260200160405190810160405280939291908181526020018383808284378201915050505050509192919290505050610335565b005b34801561010857600080fd5b5061012760048036038101908080359060200190929190505050610480565b005b34801561013557600080fd5b5061015460048036038101908080359060200190929190505050610587565b005b34801561016257600080fd5b506101816004803603810190808035906020019092919050505061068f565b6040518083600281111561019157fe5b60ff16815260200180602001828103825283818151815260200191508051906020019080838360005b838110156101d55780820151818401526020810190506101ba565b50505050905090810190601f1680156102025780820380516001836020036101000a031916815260200191505b50935050505060405180910390f35b34801561021d57600080fd5b50610226610767565b005b34801561023457600080fd5b5061029960048036038101908080359060200190929190803590602001908201803590602001908080601f0160208091040260200160405190810160405280939291908181526020018383808284378201915050505050509192919290505050610869565b005b3480156102a757600080fd5b506102b061098d565b604051808273ffffffffffffffffffffffffffffffffffffffff1673ffffffffffffffffffffffffffffffffffffffff16815260200191505060405180910390f35b3480156102fe57600080fd5b50610333600480360381019080803573ffffffffffffffffffffffffffffffffffffffff1690602001909291905050506109b2565b005b60006001806060604051908101604052806000600281111561035357fe5b8152602001858152602001600060405190808252806020026020018201604052801561039357816020015b606081526020019060019003908161037e5790505b508152509080600181540180825580915050906001820390600052602060002090600302016000909192909190915060008201518160000160006101000a81548160ff021916908360028111156103e657fe5b02179055506020820151816001019080519060200190610407929190610b13565b506040820151816002019080519060200190610424929190610b93565b505050039050336002600083815260200190815260200160002060006101000a81548173ffffffffffffffffffffffffffffffffffffffff021916908373ffffffffffffffffffffffffffffffffffffffff1602179055505050565b803373ffffffffffffffffffffffffffffffffffffffff166002600083815260200190815260200160002060009054906101000a900473ffffffffffffffffffffffffffffffffffffffff1673ffffffffffffffffffffffffffffffffffffffff161415156104ee57600080fd5b81600060028111156104fc57fe5b60018281548110151561050b57fe5b906000526020600020906003020160000160009054906101000a900460ff16600281111561053557fe5b14151561054157600080fd5b6001808481548110151561055157fe5b906000526020600020906003020160000160006101000a81548160ff0219169083600281111561057d57fe5b0217905550505050565b803373ffffffffffffffffffffffffffffffffffffffff166002600083815260200190815260200160002060009054906101000a900473ffffffffffffffffffffffffffffffffffffffff1673ffffffffffffffffffffffffffffffffffffffff161415156105f557600080fd5b816001600281111561060357fe5b60018281548110151561061257fe5b906000526020600020906003020160000160009054906101000a900460ff16600281111561063c57fe5b14151561064857600080fd5b600260018481548110151561065957fe5b906000526020600020906003020160000160006101000a81548160ff0219169083600281111561068557fe5b0217905550505050565b60018181548110151561069e57fe5b90600052602060002090600302016000915090508060000160009054906101000a900460ff1690806001018054600181600116156101000203166002900480601f01602080910402602001604051908101604052809291908181526020018280546001816001161561010002031660029004801561075d5780601f106107325761010080835404028352916020019161075d565b820191906000526020600020905b81548152906001019060200180831161074057829003601f168201915b5050505050905082565b6000809054906101000a900473ffffffffffffffffffffffffffffffffffffffff1673ffffffffffffffffffffffffffffffffffffffff163373ffffffffffffffffffffffffffffffffffffffff161415156107c257600080fd5b6000809054906101000a900473ffffffffffffffffffffffffffffffffffffffff1673ffffffffffffffffffffffffffffffffffffffff167ff8df31144d9c2f0f6b59d69b8b98abd5459d07f2742c4df920b25aae33c6482060405160405180910390a260008060006101000a81548173ffffffffffffffffffffffffffffffffffffffff021916908373ffffffffffffffffffffffffffffffffffffffff160217905550565b813373ffffffffffffffffffffffffffffffffffffffff166002600083815260200190815260200160002060009054906101000a900473ffffffffffffffffffffffffffffffffffffffff1673ffffffffffffffffffffffffffffffffffffffff161415156108d757600080fd5b82600160028111156108e557fe5b6001828154811015156108f457fe5b906000526020600020906003020160000160009054906101000a900460ff16600281111561091e57fe5b14151561092a57600080fd5b60018481548110151561093957fe5b9060005260206000209060030201600201839080600181540180825580915050906001820390600052602060002001600090919290919091509080519060200190610985929190610bf3565b505050505050565b6000809054906101000a900473ffffffffffffffffffffffffffffffffffffffff1681565b6000809054906101000a900473ffffffffffffffffffffffffffffffffffffffff1673ffffffffffffffffffffffffffffffffffffffff163373ffffffffffffffffffffffffffffffffffffffff16141515610a0d57600080fd5b610a1681610a19565b50565b600073ffffffffffffffffffffffffffffffffffffffff168173ffffffffffffffffffffffffffffffffffffffff1614151515610a5557600080fd5b8073ffffffffffffffffffffffffffffffffffffffff166000809054906101000a900473ffffffffffffffffffffffffffffffffffffffff1673ffffffffffffffffffffffffffffffffffffffff167f8be0079c531659141344cd1fd0a4f28419497f9722a3daafe3b4186f6b6457e060405160405180910390a3806000806101000a81548173ffffffffffffffffffffffffffffffffffffffff021916908373ffffffffffffffffffffffffffffffffffffffff16021790555050565b828054600181600116156101000203166002900490600052602060002090601f016020900481019282601f10610b5457805160ff1916838001178555610b82565b82800160010185558215610b82579182015b82811115610b81578251825591602001919060010190610b66565b5b509050610b8f9190610c73565b5090565b828054828255906000526020600020908101928215610be2579160200282015b82811115610be1578251829080519060200190610bd1929190610b13565b5091602001919060010190610bb3565b5b509050610bef9190610c98565b5090565b828054600181600116156101000203166002900490600052602060002090601f016020900481019282601f10610c3457805160ff1916838001178555610c62565b82800160010185558215610c62579182015b82811115610c61578251825591602001919060010190610c46565b5b509050610c6f9190610c73565b5090565b610c9591905b80821115610c91576000816000905550600101610c79565b5090565b90565b610cc191905b80821115610cbd5760008181610cb49190610cc4565b50600101610c9e565b5090565b90565b50805460018160011615610100020316600290046000825580601f10610cea5750610d09565b601f016020900490600052602060002090810190610d089190610c73565b5b505600a165627a7a72305820880423b8a97d32df948959d67b83ebb1703ca6ca91a876a9277c9ced450a67cf0029",
  "source": "pragma solidity ^0.4.24;\n\nimport \"./Ownable.sol\";\n\ncontract VoteFactory is Ownable {\n  \n    enum State {\n        Initial,\n        Started,\n        Stopped\n    }\n\n    struct Vote {\n        State state;\n        string question;\n        string[] answers;\n    } \n  \n    Vote[] public votes;\n    mapping (uint256 => address) voteToOwner;\n  \n    modifier onlyVoteOwner(uint256 _voteId) {\n        require(voteToOwner[_voteId] == msg.sender);\n        _;\n    }\n\n    modifier onlyInitialVote(uint256 _voteId) {\n        require(votes[_voteId].state == State.Initial);\n        _;\n    }\n\n    modifier onlyStartedVote(uint256 _voteId) {\n        require(votes[_voteId].state == State.Started);\n        _;\n    }\n\n    modifier onlyStoppedVote(uint256 _voteId) {\n        require(votes[_voteId].state == State.Stopped);\n        _;\n    }\n  \n    function createVote(string _question) public {\n        uint256 id = votes.push(Vote(State.Initial, _question, new string[](0))) - 1;\n        voteToOwner[id] = msg.sender;\n    }\n\n    function startVote(uint256 _voteId) public onlyVoteOwner(_voteId) onlyInitialVote(_voteId) {\n        votes[_voteId].state = State.Started;\n    }\n\n    function stopVote(uint256 _voteId) public onlyVoteOwner(_voteId) onlyStartedVote(_voteId) {\n        votes[_voteId].state = State.Stopped;\n    }\n  \n    function addAnswer(uint256 _voteId, string _answer) public onlyVoteOwner(_voteId) onlyStartedVote(_voteId) {\n        votes[_voteId].answers.push(_answer);\n    }\n}",
  "sourcePath": "/Users/mac/projects/blockchain/napoleon_it_blockchain_course/contracts/VoteFactory.sol",
  "compiler": {
    "name": "solc",
    "version": "0.4.24+commit.e67f0147.Emscripten.clang"
  },
  "schemaVersion": "2.0.1",
  "updatedAt": "2018-07-12T09:38:15.509Z"
}