{
  "contractName": "VoteFactory",
  "abi": [
    {
      "constant": true,
      "inputs": [
        {
          "name": "",
          "type": "uint256"
        }
      ],
      "name": "votes",
      "outputs": [
        {
          "name": "state",
          "type": "uint8"
        },
        {
          "name": "maximumPossibleVotes",
          "type": "uint256"
        },
        {
          "name": "question",
          "type": "string"
        }
      ],
      "payable": false,
      "stateMutability": "view",
      "type": "function"
    },
    {
      "constant": false,
      "inputs": [],
      "name": "renounceOwnership",
      "outputs": [],
      "payable": false,
      "stateMutability": "nonpayable",
      "type": "function"
    },
    {
      "constant": true,
      "inputs": [],
      "name": "owner",
      "outputs": [
        {
          "name": "",
          "type": "address"
        }
      ],
      "payable": false,
      "stateMutability": "view",
      "type": "function"
    },
    {
      "constant": true,
      "inputs": [],
      "name": "maximumPossibleVotes",
      "outputs": [
        {
          "name": "",
          "type": "uint256"
        }
      ],
      "payable": false,
      "stateMutability": "view",
      "type": "function"
    },
    {
      "constant": false,
      "inputs": [
        {
          "name": "_newOwner",
          "type": "address"
        }
      ],
      "name": "transferOwnership",
      "outputs": [],
      "payable": false,
      "stateMutability": "nonpayable",
      "type": "function"
    },
    {
      "anonymous": false,
      "inputs": [
        {
          "indexed": true,
          "name": "previousOwner",
          "type": "address"
        }
      ],
      "name": "OwnershipRenounced",
      "type": "event"
    },
    {
      "anonymous": false,
      "inputs": [
        {
          "indexed": true,
          "name": "previousOwner",
          "type": "address"
        },
        {
          "indexed": true,
          "name": "newOwner",
          "type": "address"
        }
      ],
      "name": "OwnershipTransferred",
      "type": "event"
    },
    {
      "constant": false,
      "inputs": [
        {
          "name": "_voteId",
          "type": "uint256"
        }
      ],
      "name": "startVote",
      "outputs": [],
      "payable": false,
      "stateMutability": "nonpayable",
      "type": "function"
    },
    {
      "constant": false,
      "inputs": [
        {
          "name": "_voteId",
          "type": "uint256"
        }
      ],
      "name": "stopVote",
      "outputs": [],
      "payable": false,
      "stateMutability": "nonpayable",
      "type": "function"
    },
    {
      "constant": false,
      "inputs": [
        {
          "name": "_question",
          "type": "string"
        }
      ],
      "name": "createVote",
      "outputs": [],
      "payable": false,
      "stateMutability": "nonpayable",
      "type": "function"
    },
    {
      "constant": false,
      "inputs": [
        {
          "name": "_voteId",
          "type": "uint256"
        },
        {
          "name": "_question",
          "type": "string"
        }
      ],
      "name": "setQuestion",
      "outputs": [],
      "payable": false,
      "stateMutability": "nonpayable",
      "type": "function"
    },
    {
      "constant": false,
      "inputs": [
        {
          "name": "_voteId",
          "type": "uint256"
        },
        {
          "name": "_answer",
          "type": "string"
        }
      ],
      "name": "addAnswer",
      "outputs": [],
      "payable": false,
      "stateMutability": "nonpayable",
      "type": "function"
    },
    {
      "constant": false,
      "inputs": [
        {
          "name": "_voteId",
          "type": "uint256"
        },
        {
          "name": "_answerId",
          "type": "uint256"
        },
        {
          "name": "_answer",
          "type": "string"
        }
      ],
      "name": "setAnswer",
      "outputs": [],
      "payable": false,
      "stateMutability": "nonpayable",
      "type": "function"
    },
    {
      "constant": false,
      "inputs": [
        {
          "name": "_voteId",
          "type": "uint256"
        },
        {
          "name": "_maximumPossibleVotes",
          "type": "uint256"
        }
      ],
      "name": "setMaximumPossibleVotesFor",
      "outputs": [],
      "payable": false,
      "stateMutability": "nonpayable",
      "type": "function"
    },
    {
      "constant": false,
      "inputs": [
        {
          "name": "_voteId",
          "type": "uint256"
        },
        {
          "name": "_answerId",
          "type": "uint256"
        }
      ],
      "name": "cast",
      "outputs": [],
      "payable": false,
      "stateMutability": "nonpayable",
      "type": "function"
    },
    {
      "constant": true,
      "inputs": [
        {
          "name": "_voteId",
          "type": "uint256"
        }
      ],
      "name": "results",
      "outputs": [
        {
          "name": "",
          "type": "uint256"
        }
      ],
      "payable": false,
      "stateMutability": "view",
      "type": "function"
    },
    {
      "constant": true,
      "inputs": [
        {
          "name": "_voteId",
          "type": "uint256"
        },
        {
          "name": "_answerId",
          "type": "uint256"
        }
      ],
      "name": "answerFor",
      "outputs": [
        {
          "name": "",
          "type": "string"
        }
      ],
      "payable": false,
      "stateMutability": "view",
      "type": "function"
    },
    {
      "constant": true,
      "inputs": [
        {
          "name": "_voteId",
          "type": "uint256"
        }
      ],
      "name": "questionFor",
      "outputs": [
        {
          "name": "",
          "type": "string"
        }
      ],
      "payable": false,
      "stateMutability": "view",
      "type": "function"
    }
  ],
  "bytecode": "0x6080604052336000806101000a81548173ffffffffffffffffffffffffffffffffffffffff021916908373ffffffffffffffffffffffffffffffffffffffff16021790555061183b806100536000396000f3006080604052600436106100e6576000357c0100000000000000000000000000000000000000000000000000000000900463ffffffff16806313292a02146100eb5780631b0c27da146101545780633ca79b57146101955780633f2205241461024557806343ab92b7146102725780635df813301461029f578063715018a6146103615780637491995a1461037857806384033fc7146103eb5780638da5cb5b1461045e578063a61df806146104b5578063bd28f8f1146104ec578063d10267bd14610569578063dd2d9cb214610594578063f2fde38b146105cb578063fb3e6c761461060e575b600080fd5b3480156100f757600080fd5b50610152600480360381019080803590602001908201803590602001908080601f01602080910402602001604051908101604052809392919081815260200183838082843782019150505050505091929192905050506106b4565b005b34801561016057600080fd5b5061017f600480360381019080803590602001909291905050506107ba565b6040518082815260200191505060405180910390f35b3480156101a157600080fd5b506101ca6004803603810190808035906020019092919080359060200190929190505050610874565b6040518080602001828103825283818151815260200191508051906020019080838360005b8381101561020a5780820151818401526020810190506101ef565b50505050905090810190601f1680156102375780820380516001836020036101000a031916815260200191505b509250505060405180910390f35b34801561025157600080fd5b5061027060048036038101908080359060200190929190505050610948565b005b34801561027e57600080fd5b5061029d60048036038101908080359060200190929190505050610a4f565b005b3480156102ab57600080fd5b506102ca60048036038101908080359060200190929190505050610b57565b604051808460028111156102da57fe5b60ff16815260200183815260200180602001828103825283818151815260200191508051906020019080838360005b83811015610324578082015181840152602081019050610309565b50505050905090810190601f1680156103515780820380516001836020036101000a031916815260200191505b5094505050505060405180910390f35b34801561036d57600080fd5b50610376610c35565b005b34801561038457600080fd5b506103e960048036038101908080359060200190929190803590602001908201803590602001908080601f0160208091040260200160405190810160405280939291908181526020018383808284378201915050505050509192919290505050610d37565b005b3480156103f757600080fd5b5061045c60048036038101908080359060200190929190803590602001908201803590602001908080601f0160208091040260200160405190810160405280939291908181526020018383808284378201915050505050509192919290505050610e7c565b005b34801561046a57600080fd5b50610473610f78565b604051808273ffffffffffffffffffffffffffffffffffffffff1673ffffffffffffffffffffffffffffffffffffffff16815260200191505060405180910390f35b3480156104c157600080fd5b506104ea6004803603810190808035906020019092919080359060200190929190505050610f9d565b005b3480156104f857600080fd5b506105676004803603810190808035906020019092919080359060200190929190803590602001908201803590602001908080601f0160208091040260200160405190810160405280939291908181526020018383808284378201915050505050509192919290505050611089565b005b34801561057557600080fd5b5061057e611197565b6040518082815260200191505060405180910390f35b3480156105a057600080fd5b506105c9600480360381019080803590602001909291908035906020019092919050505061119e565b005b3480156105d757600080fd5b5061060c600480360381019080803573ffffffffffffffffffffffffffffffffffffffff1690602001909291905050506114c7565b005b34801561061a57600080fd5b506106396004803603810190808035906020019092919050505061152e565b6040518080602001828103825283818151815260200191508051906020019080838360005b8381101561067957808201518184015260208101905061065e565b50505050905090810190601f1680156106a65780820380516001836020036101000a031916815260200191505b509250505060405180910390f35b6000600180606060405190810160405280600060028111156106d257fe5b8152602001629896808152602001858152509080600181540180825580915050906001820390600052602060002090600402016000909192909190915060008201518160000160006101000a81548160ff0219169083600281111561073357fe5b021790555060208201518160010155604082015181600201908051906020019061075e9291906116ea565b505050039050336002600083815260200190815260200160002060006101000a81548173ffffffffffffffffffffffffffffffffffffffff021916908373ffffffffffffffffffffffffffffffffffffffff1602179055505050565b6000806000806000925060009150600090505b600360008681526020019081526020016000208054905081101561086957600360008681526020019081526020016000208181548110151561080b57fe5b90600052602060002090600202016001015483101561085c57600360008681526020019081526020016000208181548110151561084457fe5b90600052602060002090600202016001015492508091505b80806001019150506107cd565b819350505050919050565b6060600360008481526020019081526020016000208281548110151561089657fe5b90600052602060002090600202016000018054600181600116156101000203166002900480601f01602080910402602001604051908101604052809291908181526020018280546001816001161561010002031660029004801561093b5780601f106109105761010080835404028352916020019161093b565b820191906000526020600020905b81548152906001019060200180831161091e57829003601f168201915b5050505050905092915050565b803373ffffffffffffffffffffffffffffffffffffffff166002600083815260200190815260200160002060009054906101000a900473ffffffffffffffffffffffffffffffffffffffff1673ffffffffffffffffffffffffffffffffffffffff161415156109b657600080fd5b81600060028111156109c457fe5b6001828154811015156109d357fe5b906000526020600020906004020160000160009054906101000a900460ff1660028111156109fd57fe5b141515610a0957600080fd5b60018084815481101515610a1957fe5b906000526020600020906004020160000160006101000a81548160ff02191690836002811115610a4557fe5b0217905550505050565b803373ffffffffffffffffffffffffffffffffffffffff166002600083815260200190815260200160002060009054906101000a900473ffffffffffffffffffffffffffffffffffffffff1673ffffffffffffffffffffffffffffffffffffffff16141515610abd57600080fd5b8160016002811115610acb57fe5b600182815481101515610ada57fe5b906000526020600020906004020160000160009054906101000a900460ff166002811115610b0457fe5b141515610b1057600080fd5b6002600184815481101515610b2157fe5b906000526020600020906004020160000160006101000a81548160ff02191690836002811115610b4d57fe5b0217905550505050565b600181815481101515610b6657fe5b90600052602060002090600402016000915090508060000160009054906101000a900460ff1690806001015490806002018054600181600116156101000203166002900480601f016020809104026020016040519081016040528092919081815260200182805460018160011615610100020316600290048015610c2b5780601f10610c0057610100808354040283529160200191610c2b565b820191906000526020600020905b815481529060010190602001808311610c0e57829003601f168201915b5050505050905083565b6000809054906101000a900473ffffffffffffffffffffffffffffffffffffffff1673ffffffffffffffffffffffffffffffffffffffff163373ffffffffffffffffffffffffffffffffffffffff16141515610c9057600080fd5b6000809054906101000a900473ffffffffffffffffffffffffffffffffffffffff1673ffffffffffffffffffffffffffffffffffffffff167ff8df31144d9c2f0f6b59d69b8b98abd5459d07f2742c4df920b25aae33c6482060405160405180910390a260008060006101000a81548173ffffffffffffffffffffffffffffffffffffffff021916908373ffffffffffffffffffffffffffffffffffffffff160217905550565b813373ffffffffffffffffffffffffffffffffffffffff166002600083815260200190815260200160002060009054906101000a900473ffffffffffffffffffffffffffffffffffffffff1673ffffffffffffffffffffffffffffffffffffffff16141515610da557600080fd5b8260006002811115610db357fe5b600182815481101515610dc257fe5b906000526020600020906004020160000160009054906101000a900460ff166002811115610dec57fe5b141515610df857600080fd5b6003600085815260200190815260200160002060408051908101604052808581526020016000815250908060018154018082558091505090600182039060005260206000209060020201600090919290919091506000820151816000019080519060200190610e689291906116ea565b506020820151816001015550505050505050565b813373ffffffffffffffffffffffffffffffffffffffff166002600083815260200190815260200160002060009054906101000a900473ffffffffffffffffffffffffffffffffffffffff1673ffffffffffffffffffffffffffffffffffffffff16141515610eea57600080fd5b8260006002811115610ef857fe5b600182815481101515610f0757fe5b906000526020600020906004020160000160009054906101000a900460ff166002811115610f3157fe5b141515610f3d57600080fd5b82600185815481101515610f4d57fe5b90600052602060002090600402016002019080519060200190610f7192919061176a565b5050505050565b6000809054906101000a900473ffffffffffffffffffffffffffffffffffffffff1681565b813373ffffffffffffffffffffffffffffffffffffffff166002600083815260200190815260200160002060009054906101000a900473ffffffffffffffffffffffffffffffffffffffff1673ffffffffffffffffffffffffffffffffffffffff1614151561100b57600080fd5b826000600281111561101957fe5b60018281548110151561102857fe5b906000526020600020906004020160000160009054906101000a900460ff16600281111561105257fe5b14151561105e57600080fd5b8260018581548110151561106e57fe5b90600052602060002090600402016001018190555050505050565b823373ffffffffffffffffffffffffffffffffffffffff166002600083815260200190815260200160002060009054906101000a900473ffffffffffffffffffffffffffffffffffffffff1673ffffffffffffffffffffffffffffffffffffffff161415156110f757600080fd5b836000600281111561110557fe5b60018281548110151561111457fe5b906000526020600020906004020160000160009054906101000a900460ff16600281111561113e57fe5b14151561114a57600080fd5b82600360008781526020019081526020016000208581548110151561116b57fe5b9060005260206000209060020201600001908051906020019061118f92919061176a565b505050505050565b6298968081565b600082600160028111156111ae57fe5b6001828154811015156111bd57fe5b906000526020600020906004020160000160009054906101000a900460ff1660028111156111e757fe5b1415156111f357600080fd5b600060018581548110151561120457fe5b906000526020600020906004020160030160003373ffffffffffffffffffffffffffffffffffffffff1673ffffffffffffffffffffffffffffffffffffffff16815260200190815260200160002054141561132a578260018581548110151561126957fe5b906000526020600020906004020160030160003373ffffffffffffffffffffffffffffffffffffffff1673ffffffffffffffffffffffffffffffffffffffff16815260200190815260200160002081905550600160036000868152602001908152602001600020848154811015156112dd57fe5b90600052602060002090600202016001015401600360008681526020019081526020016000208481548110151561131057fe5b9060005260206000209060020201600101819055506114c1565b60018481548110151561133957fe5b906000526020600020906004020160030160003373ffffffffffffffffffffffffffffffffffffffff1673ffffffffffffffffffffffffffffffffffffffff168152602001908152602001600020549150600160036000868152602001908152602001600020838154811015156113ac57fe5b9060005260206000209060020201600101540360036000868152602001908152602001600020838154811015156113df57fe5b9060005260206000209060020201600101819055508260018581548110151561140457fe5b906000526020600020906004020160030160003373ffffffffffffffffffffffffffffffffffffffff1673ffffffffffffffffffffffffffffffffffffffff168152602001908152602001600020819055506001600360008681526020019081526020016000208481548110151561147857fe5b9060005260206000209060020201600101540160036000868152602001908152602001600020848154811015156114ab57fe5b9060005260206000209060020201600101819055505b50505050565b6000809054906101000a900473ffffffffffffffffffffffffffffffffffffffff1673ffffffffffffffffffffffffffffffffffffffff163373ffffffffffffffffffffffffffffffffffffffff1614151561152257600080fd5b61152b816115f0565b50565b606060018281548110151561153f57fe5b90600052602060002090600402016002018054600181600116156101000203166002900480601f0160208091040260200160405190810160405280929190818152602001828054600181600116156101000203166002900480156115e45780601f106115b9576101008083540402835291602001916115e4565b820191906000526020600020905b8154815290600101906020018083116115c757829003601f168201915b50505050509050919050565b600073ffffffffffffffffffffffffffffffffffffffff168173ffffffffffffffffffffffffffffffffffffffff161415151561162c57600080fd5b8073ffffffffffffffffffffffffffffffffffffffff166000809054906101000a900473ffffffffffffffffffffffffffffffffffffffff1673ffffffffffffffffffffffffffffffffffffffff167f8be0079c531659141344cd1fd0a4f28419497f9722a3daafe3b4186f6b6457e060405160405180910390a3806000806101000a81548173ffffffffffffffffffffffffffffffffffffffff021916908373ffffffffffffffffffffffffffffffffffffffff16021790555050565b828054600181600116156101000203166002900490600052602060002090601f016020900481019282601f1061172b57805160ff1916838001178555611759565b82800160010185558215611759579182015b8281111561175857825182559160200191906001019061173d565b5b50905061176691906117ea565b5090565b828054600181600116156101000203166002900490600052602060002090601f016020900481019282601f106117ab57805160ff19168380011785556117d9565b828001600101855582156117d9579182015b828111156117d85782518255916020019190600101906117bd565b5b5090506117e691906117ea565b5090565b61180c91905b808211156118085760008160009055506001016117f0565b5090565b905600a165627a7a7230582062fca61ab039fc5ac5a544777456767757def41b79d8b98b7dd0f18007335df20029",
  "source": "pragma solidity ^0.4.24;\n\nimport \"./Ownable.sol\";\n\ncontract VoteFactory is Ownable {\n  \n    uint256 constant public maximumPossibleVotes = 10000000;\n  \n    enum State {\n        Initial,\n        Started,\n        Stopped\n    }\n\n    struct Answer {\n        string answer;\n        uint256 count;\n    }\n\n    struct Vote {\n        State state;\n        uint256 maximumPossibleVotes;\n        string question;\n        mapping (address => uint256) ownerToAnswerId;\n    } \n  \n    Vote[] public votes;\n    mapping (uint256 => address) voteToOwner;\n    mapping (uint256 => Answer[]) voteIdToAnswers;\n    \n    // modifiers \n    modifier onlyVoteOwner(uint256 _voteId) {\n        require(voteToOwner[_voteId] == msg.sender);\n        _;\n    }\n\n    modifier onlyInitialVote(uint256 _voteId) {\n        require(votes[_voteId].state == State.Initial);\n        _;\n    }\n\n    modifier onlyStartedVote(uint256 _voteId) {\n        require(votes[_voteId].state == State.Started);\n        _;\n    }\n\n    modifier onlyStoppedVote(uint256 _voteId) {\n        require(votes[_voteId].state == State.Stopped);\n        _;\n    }\n    \n    modifier onlyVotesCountLessThanMaximum(uint256 _voteId) {\n        uint256 total = 0;\n        for(uint32 index = 0; index<voteIdToAnswers[_voteId].length; index++) {\n            total += voteIdToAnswers[_voteId][index].count;\n        }\n        require(votes[_voteId].maximumPossibleVotes < total);\n        _;\n    }\n\n    // vote state manipulators \n    function startVote(uint256 _voteId) public onlyVoteOwner(_voteId) onlyInitialVote(_voteId) {\n        votes[_voteId].state = State.Started;\n    }\n\n    function stopVote(uint256 _voteId) public onlyVoteOwner(_voteId) onlyStartedVote(_voteId) {\n        votes[_voteId].state = State.Stopped;\n    }\n\n    // vote\n    function createVote(string _question) public {\n        uint256 id = votes.push(Vote(State.Initial, maximumPossibleVotes, _question)) - 1;\n        voteToOwner[id] = msg.sender;\n    }\n\n    function setQuestion(uint256 _voteId, string _question) public onlyVoteOwner(_voteId) onlyInitialVote(_voteId) {\n        votes[_voteId].question = _question;\n    }\n\n    function addAnswer(uint256 _voteId, string _answer) public onlyVoteOwner(_voteId) onlyInitialVote(_voteId) {\n        voteIdToAnswers[_voteId].push(Answer(_answer, 0));\n    }\n\n    function setAnswer(uint256 _voteId, uint256 _answerId, string _answer) public onlyVoteOwner(_voteId) onlyInitialVote(_voteId) {\n        voteIdToAnswers[_voteId][_answerId].answer = _answer;\n    }\n    \n    function setMaximumPossibleVotesFor(uint256 _voteId, uint256 _maximumPossibleVotes) public onlyVoteOwner(_voteId) onlyInitialVote(_voteId) {\n        votes[_voteId].maximumPossibleVotes = _maximumPossibleVotes;\n    }\n\n    function cast(uint256 _voteId, uint256 _answerId) public onlyStartedVote(_voteId) {\n        if (votes[_voteId].ownerToAnswerId[msg.sender] == 0) {\n            votes[_voteId].ownerToAnswerId[msg.sender] = _answerId;\n            voteIdToAnswers[_voteId][_answerId].count = voteIdToAnswers[_voteId][_answerId].count + 1;\n        } else {\n            uint256 previousAnswerId = votes[_voteId].ownerToAnswerId[msg.sender];  \n            voteIdToAnswers[_voteId][previousAnswerId].count = voteIdToAnswers[_voteId][previousAnswerId].count - 1;\n            \n            votes[_voteId].ownerToAnswerId[msg.sender] = _answerId;\n            voteIdToAnswers[_voteId][_answerId].count = voteIdToAnswers[_voteId][_answerId].count + 1;\n        }\n    }\n\n    function results(uint256 _voteId) public view returns(uint256) {\n        uint256 max = 0;\n        uint256 winner = 0;\n        \n        for(uint256 index = 0; index < voteIdToAnswers[_voteId].length; index++) {\n            if (max < voteIdToAnswers[_voteId][index].count) {\n                max = voteIdToAnswers[_voteId][index].count;\n                winner = index;\n            }\n        }\n        \n        return winner;\n    }\n\n    // helper \n    function answerFor(uint256 _voteId, uint256 _answerId) public view returns(string) {\n        return voteIdToAnswers[_voteId][_answerId].answer;\n    }\n\n    function questionFor(uint256 _voteId) public view returns(string) {\n        return votes[_voteId].question;\n    }\n}",
  "sourcePath": "/Users/mac/projects/blockchain/napoleon_it_blockchain_course/contracts/VoteFactory.sol",
  "compiler": {
    "name": "solc",
    "version": "0.4.24+commit.e67f0147.Emscripten.clang"
  },
  "schemaVersion": "2.0.1",
  "updatedAt": "2018-07-20T10:55:21.913Z"
}